:107800000C94343C0C94513C0C94513C0C94513CE1
:107810000C94513C0C94513C0C94513C0C94513CB4
:107820000C94513C0C94513C0C94513C0C94663C8F
:107830000C94513C0C94513C0C94513C0C94513C94
:107840000C94513C0C94513C0C94513C0C94513C84
:107850000C94513C0C94513C0C94513C0C94513C74
:107860000C94513C0C94513C11241FBECFEFD8E036
:10787000DEBFCDBF11E0A0E0B1E0E2EDFFE702C066
:1078800005900D92A830B107D9F711E0A8E0B1E05A
:1078900001C01D92A731B107E1F70E94603D0C9431
:1078A000E73F0C94003C282F392FEFE3F0E0808174
:1078B00081FDFDCF1FBA822F932F92BD81BD60BD88
:1078C0000FB6F894FA9AF99A0FBE08951F920F9284
:1078D0000FB60F9211248F93809114018F5F8093C4
:1078E00014018F910F900FBE0F901F901895E0EC30
:1078F000F0E080818823ECF78091C6000895982FEE
:10790000E0ECF0E0808185FFFDCF9093C600089504
:10791000CF93DF93EC018881882331F021960E9478
:107920007F3C88818823D1F7DF91CF910895EF9232
:10793000FF920F931F93CF93DF93EC0120E310E0AE
:107940000F2EF0E0EF2EF1E0FF2EF02D00E303C04C
:10795000CE1BDF0B2F5F812F90E0880F991FF7015F
:10796000E80FF91F0190F081E02DCE17DF0780F7B7
:10797000822F0E947F3C1F5F143010F4202FEBCF2A
:10798000DF91CF911F910F91FF90EF900895CF92CB
:10799000DF92EF92FF921F93CF93DF937C0110E071
:1079A000CFE3D0E00F2EF1E4CF2EDD24F02D88813F
:1079B00081FDFDCFC701810F911DF6019183808369
:1079C000F89A80B5882321F00E947F3C1F5FEFCF9B
:1079D000DF91CF911F91FF90EF90DF90CF900895AE
:1079E0008FE890E00E94C73C08950F931F93CF93B8
:1079F000DF93BC01209115013091160188E72030FA
:107A000038077CF0C3E5D0E006E712E088818160AA
:107A10008883889588818E7F8883C8010E94C73CAF
:107A2000F5CFE7E5F0E0808180FDFDCFEFE3F0E00A
:107A3000808181FDFDCF80911301A901F901E80F3B
:107A4000F11D91E00B0190935700E89511248E5F92
:107A50008093130188237CF5E7E5F0E0808180FDC9
:107A6000FDCFEFE3F0E0808181FDFDCF85E0FA01FD
:107A700080935700E895E7E5F0E0808180FDFDCF39
:107A8000E7E5F0E0808180FDFDCFEFE3F0E080816D
:107A900081FDFDCF81E180935700E895C9018058B1
:107AA0009F4F90931601809315011092130186E861
:107AB00092E00E94C73CDF91CF911F910F910895F2
:107AC0002F923F924F925F926F927F928F929F92EE
:107AD000AF92BF92CF92DF92EF92FF920F931F93DC
:107AE000DF93CF93CDB7DEB7C455D0400FB6F8942F
:107AF000DEBF0FBECDBFE5E5F0E081E0808392E020
:107B000090831092C50083E38093C40088E1809342
:107B1000C10090936F0088E09DE39093890080936B
:107B200088008DE080938100E4E2F0E08081806253
:107B3000808378940F2EF0E96F2EF2E07F2EF02DE7
:107B40002E010894411C511C0F2EFFE32F2E3324CD
:107B5000F02DCE01059665969FAF8EAF6597C20159
:107B600062964FAE629763969FAF6397E5E2F0E04F
:107B700080818062808383017201D1018C9181FDBB
:107B8000FCCFE1E4F0E011830083F89A80B5D701DF
:107B90008C93181614F40E947F3C0F5F1F4F0894BB
:107BA000E11CF11CB2E0003E1B0739F70E94F03CDB
:107BB00010920E01AFE0B1E0F20120E430EC9E2F14
:107BC00094198081863711F43C9303C0863589F47B
:107BD0002C938C91892B8D93319680910E018F5F20
:107BE00080930E0165968EAD9FAD6597E817F907F6
:107BF00031F710920D019081892F80538A3090F4D3
:107C00003AE080910D01839FC001112480930D0102
:107C100021912053280F20930D019081892F8053AB
:107C20008A3078F3933231F480910D01882311F07A
:107C300020E001C02FEFE0E0F0E085919591A59163
:107C4000B4918F5F9F4FAF4FBF4F09F482C08AE757
:107C500090E00E94C73C0E94773C843409F052C0F7
:107C60000E94F03CC3010E94C73C0E94F03C00E02F
:107C700010E0EE249924892CF801A590B590C590C8
:107C8000D490FFEFAF16FFEFBF06FFEFCF06FFEF79
:107C9000DF0699F10C5F1F4FF92CD601C5018070EA
:107CA0009070A07FBF73072E74E1B695A795979546
:107CB00087957A95D1F7702D0E94973C092E9AE00E
:107CC000AA0CBB1CCC1CDD1C9A95D1F7902DE3941B
:107CD00080910E01E81620F00E94F03CE82C04C0D0
:107CE0008CE990E00E94C73CF39433E0F316A9F6C8
:107CF00088E70030180709F0BFCF82E990E00E94C2
:107D0000C73C34CF853609F031CF87EA90E00E9436
:107D1000C73C0E94773C893709F028CFE0E0F0E0CB
:107D200027E530E093E0D9018C9180FDFCCFD101B3
:107D30008C9181FDFCCF90935700E895E058FF4F60
:107D4000B8E7E030FB0779F78EE990E00E94C73C86
:107D50000DCF2223C1F489E490E00E94C73CE5E204
:107D6000F0E080818F7D808310921401E0ECF0E0E0
:107D700004C0809114018430A0F580818823CCF761
:107D80000E94773C04C08FE290E00E94C73C85E9E6
:107D900091E00E94C73C86EB90E00E94C73C7201D4
:107DA00010E00E94773C8E3044F0F70181937F0110
:107DB0000E947F3C1F5F1F34A1F7F201E10FF11D0C
:107DC00010820E94F03CC30162966FAD6297639689
:107DD0007FAD639740E550E023E53CE30E94943F8C
:107DE000C5CE05E210E0D8018C9180628C9380E0D2
:107DF00090E00E94C73CE3E5F0E08081817F8083D2
:107E0000F80180818F7D8083109214010F2EF3E59D
:107E10006F2E7724F02D0F2EFFE08F2EF1E09F2E96
:107E2000F02D0AE710E00F2EF7E8EF2EF02D0F2EC1
:107E3000FCE7AF2EBB24F02D0F2EF8E7CF2EDD246C
:107E4000F02D0F2EF9E04F2EF1E05F2EF02D09C03E
:107E5000D3018C9181608C938895F30180818E7F12
:107E600080839091140180910D01981788F31092EE
:107E7000140180910E018823A1F3FF24F401EF0D7A
:107E8000F11D8081D801EC92F50180838C91806492
:107E90008C93D8018C9186FDFCCFF6012081318135
:107EA0008C918F778C9340E050E080910901909104
:107EB0000A01A0910B01B0910C01072E7AE0880F06
:107EC000991FAA1FBB1F7A95D1F7702D282B392B2C
:107ED0004A2B5B2B2093090130930A0140930B013D
:107EE00050930C01809108018F5F809308018330CB
:107EF000A0F010920801D2018D919C910E94F53C56
:107F00008091090190910A01A0910B01B0910C019F
:107F1000CD01AA27BB270E94F53CF39480910E0166
:107F2000F81608F4ABCF9DCFA0E0B0E0EAE9FFE39C
:107F30000C94BA3FEC017B018A01690109C0CE01B2
:107F40002196F70161917F01F601099501501040DA
:107F500001151105A1F7CDB7DEB7E8E00C94D63FC7
:107F60002F923F924F925F926F927F928F929F9249
:107F7000AF92BF92CF92DF92EF92FF920F931F9337
:107F8000CF93DF93CDB7DEB7CA1BDB0B0FB6F894E8
:107F9000DEBF0FBECDBF09942A88398848885F8428
:107FA0006E847D848C849B84AA84B984C884DF8099
:107FB000EE80FD800C811B81AA81B981CE0FD11D7D
:107FC0000FB6F894DEBF0FBECDBFED010895F89453
:027FD000FFCFE1
:087FD200E80364000A0001004D
:040000030000780081
:00000001FF
