:107800000C94343C0C94513C0C94513C0C94513CE1
:107810000C94513C0C94513C0C94513C0C94513CB4
:107820000C94513C0C94513C0C94513C0C94663C8F
:107830000C94513C0C94513C0C94513C0C94513C94
:107840000C94513C0C94513C0C94513C0C94513C84
:107850000C94513C0C94513C0C94513C0C94513C74
:107860000C94513C0C94513C11241FBECFEFD8E036
:10787000DEBFCDBF11E0A0E0B1E0EAE8FFE702C063
:1078800005900D92A830B107D9F711E0A8E0B1E05A
:1078900001C01D92A731B107E1F70E94723D0C941F
:1078A000C33F0C94003C282F392FEFE3F0E0808198
:1078B00081FDFDCF1FBA822F932F92BD81BD60BD88
:1078C0000FB6F894FA9AF99A0FBE08951F920F9284
:1078D0000FB60F9211248F93809114018F5F8093C4
:1078E00014018F910F900FBE0F901F901895E0EC30
:1078F000F0E080818823ECF78091C6000895982FEE
:10790000E0ECF0E0808185FFFDCF9093C600089504
:10791000CF93DF93EC018881882331F021960E9478
:107920007F3C88818823D1F7DF91CF910895EF9232
:10793000FF920F931F93CF93DF93EC0120E310E0AE
:107940000F2EF0E0EF2EF1E0FF2EF02D00E303C04C
:10795000CE1BDF0B2F5F812F90E0880F991FF7015F
:10796000E80FF91F0190F081E02DCE17DF0780F7B7
:10797000822F0E947F3C1F5F143010F4202FEBCF2A
:10798000DF91CF911F910F91FF90EF900895CF92CB
:10799000DF92EF92FF921F93CF93DF937C0110E071
:1079A000CFE3D0E00F2EF1E4CF2EDD24F02D88813F
:1079B00081FDFDCFC701810F911DF6019183808369
:1079C000F89A80B5882321F00E947F3C1F5FEFCF9B
:1079D000DF91CF911F91FF90EF90DF90CF900895AE
:1079E00081E890E00E94C73C08950F931F93CF93C6
:1079F000DF93DC01209115013091160188E72030DA
:107A000038077CF0C3E5D0E00CE512E088818160A6
:107A10008883889588818E7F8883C8010E94C73CAF
:107A2000F5CF40911301442379F4E7E5F0E080813C
:107A300080FDFDCFEFE3F0E0808181FDFDCF83E0AD
:107A4000F90180935700E895E7E5F0E0808180FD3B
:107A5000FDCFEFE3F0E0808181FDFDCFB901F901B9
:107A6000E40FF11D81E00D0180935700E89511248A
:107A7000842F8E5F8093130188237CF5E7E5F0E087
:107A8000808180FDFDCFEFE3F0E0808181FDFDCFBF
:107A900085E0FB0180935700E895E7E5F0E0808101
:107AA00080FDFDCFE7E5F0E0808180FDFDCFEFE3D5
:107AB000F0E0808181FDFDCF81E180935700E89562
:107AC000C90180589F4F9093160180931501109221
:107AD00013018CE692E00E94C73CDF91CF911F9189
:107AE0000F9108952F923F924F925F926F927F92E3
:107AF0008F929F92AF92BF92CF92DF92EF92FF92BE
:107B00000F931F93DF93CF93CDB7DEB7C055D0400F
:107B10000FB6F894DEBF0FBECDBFE5E5F0E081E023
:107B2000808392E090831092C50083E38093C40029
:107B300088E18093C10090936F0088E09DE390936B
:107B40008900809388008DE080938100789440E0E4
:107B50000F2EFFE36F2E7724F02D0F2EF6E74F2E1A
:107B6000F2E05F2EF02D1E010894211C311C14C080
:107B7000F301808181FDFCCF242F30E0C201820F10
:107B8000931F92BD81BDF89A80B5F101E20FF31FFA
:107B900080834F5F01C040E0403550F310920E01EA
:107BA000EFE0F1E0D10190E020E430EC8C918637F9
:107BB00011F4308307C0863511F4208303C08FEFA2
:107BC000808309C08081892B8083119680910E016A
:107BD0008F5F80930E019F5F3196943039F710923A
:107BE0000D019C91892F80538A3090F480910D0172
:107BF000EAE08E9FC001112480930D012D91205346
:107C0000280F20930D019C91892F80538A3070F3A7
:107C1000933231F480910D01882311F020E001C0EE
:107C20002FEFE0E0F0E0859194918F5F9F4F09F492
:107C30007DC080E690E00E94C73C0E94773C84347F
:107C400009F053C00E94F03CC2010E94C73C0E9450
:107C5000F03C00E010E0EE249924892CF801A59076
:107C6000B590C590D4902FEFA2162FEFB2062FEF4C
:107C7000C2062FEFD20699F10C5F1F4FF92CD601E7
:107C8000C50180709070A07FBF73072E74E1B69518
:107C9000A795979587957A95D1F7702D0E94973C77
:107CA000092E9AE0AA0CBB1CCC1CDD1C9A95D1F7BE
:107CB000902DE39480910E01E81620F00E94F03C94
:107CC000E82C04C08FE790E00E94C73CF39433E0B7
:107CD000F316A9F688E70030180709F0BFCF85E74B
:107CE00090E00E94C73C40E057CF853609F053CF63
:107CF0008DE890E00E94C73C0E94773C893709F0EC
:107D00004ACFE7E5F0E0808180FDFBCFF301808181
:107D100081FDFCCFE0E0F0E083E080935700E89540
:107D200084E890E00E94C73C40E036CF222399F4DB
:107D30008FE290E00E94C73C1092140104C0809131
:107D40001401843090F5E0ECF0E080818823BCF7EA
:107D50000E94773C04C085E190E00E94C73C8BE71D
:107D600091E00E94C73C8CE990E00E94C73C710101
:107D700010E00E94773C8E3044F0F70181937F0140
:107D80000E947F3C1F5F1F34A1F7F101E10FF11D3D
:107D900010820E94F03CC201B10140E550E023E5B1
:107DA0003CE30E94703F40E0F7CE80E090E00E940C
:107DB000C73CE3E5F0E08081817F8083109214016D
:107DC0000F2EF3E56F2E7724F02D0F2EFFE08F2E70
:107DD000F1E09F2EF02D0AE710E00F2EF7E8EF2ECE
:107DE000F02D0F2EFCE7AF2EBB24F02D0F2EF8E761
:107DF000CF2EDD24F02D0F2EF9E04F2EF1E05F2E77
:107E0000F02D09C0F3018081816080838895F301A2
:107E100080818E7F80839091140180910D0198174D
:107E200088F31092140180910E018823A1F3FF249E
:107E3000F401EF0DF11D8081F801E082F5018083EE
:107E4000F801808180648083F801808186FDFCCF09
:107E5000F60120813181F80180818F77808340E0B5
:107E600050E08091090190910A01A0910B01B0911D
:107E70000C01072E7AE0880F991FAA1FBB1F7A9565
:107E8000D1F7702D282B392B4A2B5B2B209309011E
:107E900030930A0140930B0150930C01809108012B
:107EA0008F5F809308018330A0F010920801F201E7
:107EB000808191810E94F53C8091090190910A0195
:107EC000A0910B01B0910C01CD01AA27BB270E9404
:107ED000F53CF39480910E01F81608F4A9CF9BCFDE
:107EE000A0E0B0E0E6E7FFE30C94963FEC017B01F5
:107EF0008A01690109C0CE012196F70161917F01D4
:107F0000F60109950150104001151105A1F7CDB7F3
:107F1000DEB7E8E00C94B23F2F923F924F925F920F
:107F20006F927F928F929F92AF92BF92CF92DF9289
:107F3000EF92FF920F931F93CF93DF93CDB7DEB7EE
:107F4000CA1BDB0B0FB6F894DEBF0FBECDBF099482
:107F50002A88398848885F846E847D848C849B84D9
:107F6000AA84B984C884DF80EE80FD800C811B81E7
:107F7000AA81B981CE0FD11D0FB6F894DEBF0FBE16
:0A7F8000CDBFED010895F894FFCF86
:087F8A00E80364000A00010095
:040000030000780081
:00000001FF
