:107800000C94343C0C94513C0C94513C0C94513CE1
:107810000C94513C0C94513C0C94513C0C94513CB4
:107820000C94513C0C94513C0C94513C0C94663C8F
:107830000C94513C0C94513C0C94513C0C94513C94
:107840000C94513C0C94513C0C94513C0C94513C84
:107850000C94513C0C94513C0C94513C0C94513C74
:107860000C94513C0C94513C11241FBECFEFD8E036
:10787000DEBFCDBF11E0A0E0B1E0E2E9FFE702C06A
:1078800005900D92A830B107D9F711E0A8E0B1E05A
:1078900001C01D92A731B107E1F70E94603D0C9431
:1078A000C73F0C94003C282F392FEFE3F0E0808194
:1078B00081FDFDCF1FBA822F932F92BD81BD60BD88
:1078C0000FB6F894FA9AF99A0FBE08951F920F9284
:1078D0000FB60F9211248F93809114018F5F8093C4
:1078E00014018F910F900FBE0F901F901895E0EC30
:1078F000F0E080818823ECF78091C6000895982FEE
:10790000E0ECF0E0808185FFFDCF9093C600089504
:10791000CF93DF93EC018881882331F021960E9478
:107920007F3C88818823D1F7DF91CF910895EF9232
:10793000FF920F931F93CF93DF93EC0120E310E0AE
:107940000F2EF0E0EF2EF1E0FF2EF02D00E303C04C
:10795000CE1BDF0B2F5F812F90E0880F991FF7015F
:10796000E80FF91F0190F081E02DCE17DF0780F7B7
:10797000822F0E947F3C1F5F143010F4202FEBCF2A
:10798000DF91CF911F910F91FF90EF900895CF92CB
:10799000DF92EF92FF921F93CF93DF937C0110E071
:1079A000CFE3D0E00F2EF1E4CF2EDD24F02D88813F
:1079B00081FDFDCFC701810F911DF6019183808369
:1079C000F89A80B5882321F00E947F3C1F5FEFCF9B
:1079D000DF91CF911F91FF90EF90DF90CF900895AE
:1079E00081E890E00E94C73C08950F931F93CF93C6
:1079F000DF93BC01209115013091160188E72030FA
:107A000038077CF0C3E5D0E00CE512E088818160A6
:107A10008883889588818E7F8883C8010E94C73CAF
:107A2000F5CFE7E5F0E0808180FDFDCFEFE3F0E00A
:107A3000808181FDFDCF80911301A901F901E80F3B
:107A4000F11D91E00B0190935700E89511248E5F92
:107A50008093130188237CF5E7E5F0E0808180FDC9
:107A6000FDCFEFE3F0E0808181FDFDCF85E0FA01FD
:107A700080935700E895E7E5F0E0808180FDFDCF39
:107A8000E7E5F0E0808180FDFDCFEFE3F0E080816D
:107A900081FDFDCF81E180935700E895C9018058B1
:107AA0009F4F9093160180931501109213018CE65D
:107AB00092E00E94C73CDF91CF911F910F910895F2
:107AC0002F923F924F925F926F927F928F929F92EE
:107AD000AF92BF92CF92DF92EF92FF920F931F93DC
:107AE000DF93CF93CDB7DEB7C055D0400FB6F89433
:107AF000DEBF0FBECDBFE5E5F0E081E0808392E020
:107B000090831092C50083E38093C40088E1809342
:107B1000C10090936F0088E09DE39093890080936B
:107B200088008DE080938100789440E00F2EFFE381
:107B30006F2E7724F02D0F2EF6E74F2EF2E05F2EFA
:107B4000F02D0F2EF1E42F2E3324F02D18C0D30189
:107B50008C9181FDFCCF242F30E0C201820F931F56
:107B6000F10191838083F89A80B5E1E0F0E0EC0FB9
:107B7000FD1FE20FF31F80834F5F01C040E04035DF
:107B800030F310920E01EFE0F1E0DE01119690E08B
:107B90002FEF30E440EC8C91863711F4408306C01F
:107BA000863511F4308302C0208309C08081892B7F
:107BB0008083119680910E018F5F80930E019F5FED
:107BC0003196943041F710920D019C91892F80538A
:107BD0008A3090F480910D01FAE08F9FC00111244A
:107BE00080930D012D912053280F20930D019C911E
:107BF000892F80538A3070F3933231F480910D01D4
:107C0000882311F020E001C02FEFE0E0F0E0859143
:107C10009591A591B4918F5F9F4FAF4FBF4F09F4DE
:107C200083C080E690E00E94C73C0E94773C843489
:107C300009F053C00E94F03CC2010E94C73C0E9460
:107C4000F03C00E010E0EE249924892CF801A59086
:107C5000B590C590D4908FEFA8168FEFB8068FEF30
:107C6000C8068FEFD80699F10C5F1F4FF92CD6018B
:107C7000C50180709070A07FBF73072E74E1B69528
:107C8000A795979587957A95D1F7702D0E94973C87
:107C9000092E9AE0AA0CBB1CCC1CDD1C9A95D1F7CE
:107CA000902DE39480910E01E81620F00E94F03CA4
:107CB000E82C04C08FE790E00E94C73CF394A3E057
:107CC000FA16A9F6B8E700301B0709F0BFCF85E721
:107CD00090E00E94C73C40E052CF853609F04ECF7D
:107CE0008DE890E00E94C73C0E94773C893709F0FC
:107CF00045CFE0E0F0E093E0A7E5B0E08C9180FDB7
:107D0000FBCFD3018C9181FDFCCF90935700E89578
:107D1000E058FF4FB8E7E030FB0771F784E890E0E8
:107D20000E94C73C40E02BCF222399F48FE290E0E1
:107D30000E94C73C1092140104C080911401843049
:107D4000D0F5E0ECF0E080818823BCF70E94773C1E
:107D500004C085E190E00E94C73C8BE791E00E945F
:107D6000C73C8CE990E00E94C73C7E010894E11C6E
:107D7000F11C10E00E94773C8E3044F0D7018D93C7
:107D80007D010E947F3C1F5F1F34A1F7E1E0F0E01E
:107D9000EC0FFD1FE10FF11D10820E94F03CC201AB
:107DA000BE016F5F7F4F40E550E023E53CE30E945A
:107DB000743F40E0E4CE80E090E00E94C73CE3E501
:107DC000F0E08081817F8083109214010F2EF3E513
:107DD0006F2E7724F02D0F2EFFE08F2EF1E09F2ED7
:107DE000F02D0AE710E00F2EF7E8EF2EF02D0F2E02
:107DF000FCE7AF2EBB24F02D0F2EF8E7CF2EDD24AD
:107E0000F02D0F2EF9E04F2EF1E05F2EF02D09C07E
:107E1000F3018081816080838895D3018C918E7F6E
:107E20008C939091140180910D01981788F3109212
:107E3000140180910E018823A1F3FF24F401EF0DBA
:107E4000F11D8081F801E082D5018C9380818064EE
:107E50008083F801808186FDFCCFD6012D913C9175
:107E600080818F77808340E050E08091090190917C
:107E70000A01A0910B01B0910C01072E7AE0880F46
:107E8000991FAA1FBB1F7A95D1F7702D282B392B6C
:107E90004A2B5B2B2093090130930A0140930B017D
:107EA00050930C01809108018F5F8093080183300B
:107EB000A0F010920801F201808191810E94F53CAE
:107EC0008091090190910A01A0910B01B0910C01E0
:107ED000CD01AA27BB270E94F53CF39480910E01A7
:107EE000F81608F4ABCF9DCFA0E0B0E0EAE7FFE3DF
:107EF0000C949A3FEC017B018A01690109C0CE0113
:107F00002196F70161917F01F6010995015010401A
:107F100001151105A1F7CDB7DEB7E8E00C94B63F27
:107F20002F923F924F925F926F927F928F929F9289
:107F3000AF92BF92CF92DF92EF92FF920F931F9377
:107F4000CF93DF93CDB7DEB7CA1BDB0B0FB6F89428
:107F5000DEBF0FBECDBF09942A88398848885F8468
:107F60006E847D848C849B84AA84B984C884DF80D9
:107F7000EE80FD800C811B81AA81B981CE0FD11DBD
:107F80000FB6F894DEBF0FBECDBFED010895F89493
:027F9000FFCF21
:087F9200E80364000A0001008D
:040000030000780081
:00000001FF
